:1000000029C0000042C0000040C000003EC0000007
:100010003AC200003AC0000038C0000036C00000FC
:1000200034C0000032C0000030C0000058C00000E2
:100030002CC000002AC0000028C00000A2C100009F
:10004000C9C1000022C0000020C000001EC0000086
:100050001CC0000011241FBECFE5D8E0DEBFCDBF1D
:1000600010E0A0E6B0E0E6ECFCE002C005900D92E6
:10007000A037B107D9F711E0A0E7B0E001C01D92A9
:10008000A030B107E1F755D21CC6BACF87B380695B
:1000900087BBBE98C49AA79AAF9A8DB183658DB974
:1000A00083B7856083BF89B7816089BF08958091D8
:1000B00061000895809160000895909161008091A1
:1000C0006000981708F4892F0895209161008091AD
:1000D000600090E0820F911D9595879508951F927D
:1000E0000F920FB60F9211242F938F939F93AF937C
:1000F000BF93EF93FF93AF988AE18A95F1F700C021
:100100001FB8779BFECF8FB1E0917600F0E0ED58FD
:10011000FF4F80838AE18A95F1F700C01FB8779B73
:10012000FECF809176009FB1E82FF0E0E059FF4FBD
:1001300090838F5F833018F48093760002C0109212
:100140007600209174008091730090E0A0E0B0E010
:10015000820F911DA11DB11DB695A7959795879505
:1001600080936100209171008091700090E0A0E088
:10017000B0E0820F911DA11DB11DB695A795979571
:10018000879580936000AF9AFF91EF91BF91AF91F7
:100190009F918F912F910F900FBE0F901F901895E8
:1001A0008E9A96988F989798A098A89887B38C7FE6
:1001B00087BB88B38C7F88BB0895879912C08FEC6A
:1001C00097E00197F1F700C00000879908958FEC40
:1001D00097E00197F1F700C000008799F7CF81E021
:1001E000089580E00895B19912C08FEC97E00197CF
:1001F000F1F700C00000B19908958FEC97E00197E6
:10020000F1F700C00000B199F7CF81E0089580E0D8
:100210000895989912C08FEC97E00197F1F700C00C
:100220000000989908958FEC97E00197F1F700C0CE
:1002300000009899F7CF81E0089580E00895B09983
:1002400012C08FEC97E00197F1F700C00000B09961
:1002500008958FEC97E00197F1F700C00000B09986
:10026000F7CF81E0089580E00895A39AD79AA19AE4
:10027000D69A0895882311F0AB9A0895AB98089503
:10028000882311F0DF9A0895DF98089567FD19C05B
:10029000AA9AAC98611103C01BBC1ABC06C0660FB9
:1002A000770B6F5F7F4F7BBD6ABD87FD11C0AE9A34
:1002B000AD98811103C019BC18BC0895880F990B23
:1002C0000DC0AA98AC9A2EEF6202B0011124E9CFBA
:1002D000AE98AD9A2EEF8202C0011124019699BD0D
:1002E00088BD089584B3846784BB85B38B7885BB50
:1002F00081B3806381BB82B38F7C82BB8FB5816AFF
:100300008FBD8EB58B608EBD1BBC1ABC19BC18BCD2
:10031000089588E48AB986E880BD10BC80E189B977
:10032000089590917700E92FF0E0E758FF4F808320
:100330009F5F913818F4909377000895109277009A
:1003400008951F93CF93DF93EC0110E0812F90E08D
:10035000FE0101900020E9F7EC1BFD0B32978E1790
:100360009F0738F4FE01E80FF91F8081DADF1F5F75
:10037000EDCFEC0FFD1F80818CB9DF91CF911F91E4
:1003800008951F920F920FB60F9211248F93EF933F
:10039000FF93E091780080917700E81771F0F0E02A
:1003A000E758FF4F80818CB9809178008F5F8093F0
:1003B0007800813810F010927800FF91EF918F91C2
:1003C0000F900FBE0F901F90189583EC87B98FEC9C
:1003D00086B908951F920F920FB60F9211248F9332
:1003E0009F938091F90081110BC084B195B19093D6
:1003F000FF008093FE0087B1807E87B93A9A1CC0C7
:10040000813061F484B195B19093FD008093FC003C
:1004100087B1807E87B987B185600DC0823069F46D
:1004200084B195B19093FB008093FA0087B1807EF0
:1004300087B987B1836087B9369A8091F9008F5F59
:10044000833018F48093F90002C01092F9009F9154
:100450008F910F900FBE0F901F9018958091FC0008
:1004600008958091FA0008958091FE00089582B564
:10047000877F82BD85B58F6085BD86E983BD89B7DD
:10048000806889BF08951F920F920FB60F921124B2
:100490000F931F932F933F934F935F936F937F938C
:1004A0008F939F93AF93BF93EF93FF93CF93DF937C
:1004B000CDB7DEB7C456D109DEBFCDBFD2DF082F1E
:1004C000CDDF182FD1DF1F920F931F921F931F9222
:1004D0008F9382E690E09F938F938E010F5F1F4F63
:1004E0001F930F932FD1C8012CDF0FB6F894DEBFF6
:1004F0000FBECDBFCC59DF4F0FB6F894DEBF0FBE95
:10050000CDBFDF91CF91FF91EF91BF91AF919F91BF
:100510008F917F916F915F914F913F912F911F919B
:100520000F910F900FBE0F901F9018958B98939A74
:1005300008959BDEABDDD6DE33DEF8DF98DFE9DE43
:1005400044DF789400E010E0C0E0D0E0B6DD883C05
:1005500060F5C93E23E0D207B8F7A9DD182FAADD60
:10056000181728F481E08CDE80E084DE04C081E08E
:1005700081DE80E085DE9EDD182F99DD212F30E0C1
:100580002950310990E0821793070CF465C08FDD84
:10059000182F90DD212F30E02950310990E082178B
:1005A00093070CF459C06FE75DC0C0E0D0E085DD73
:1005B000893C08F444C0C03D87E0D80718F577DDD2
:1005C000F82E78DDF81628F481E05ADE80E052DE5D
:1005D00004C081E04FDE80E053DE111103C06FE7FD
:1005E00081E802C061E88FE751DEE7DD811127C0B5
:1005F000FADD811124C00DDE811121C020DE8111C0
:100600001EC03DC06FE78FE741DED7DD811117C007
:10061000EADD811114C0FDDD811111C010DE8111F0
:100620000EC0C5CF6FE780E031DE41DDF82E42DD40
:1006300011E0F81608F410E0C0DD8823A9F0BDDD54
:10064000811125C0D0DD811122C0E3DD81111FC0E1
:10065000F6DD81111CC078CF2ADD182F2BDD811724
:1006600008F760E08FE7E0CFBEDD8111E8CFD1DD94
:100670008111E5CFE4DD8111E2CF219667CF8FE9CB
:100680009FE00197F1F700C00000219690CF95DD23
:10069000882369F062E981E8F9DD9FEF24E38CE0CB
:1006A000915020408040E1F700C0000010E09BDD49
:1006B000882369F061E882E9E9DD9FEF24E38CE0BB
:1006C000915020408040E1F700C0000011E0A1DD22
:1006D000882369F06FE78EE6D9DD9FEF24E38CE095
:1006E000915020408040E1F700C0000010E0A7DDFD
:1006F000882369F06EE68FE7C9DD9FEF24E38CE085
:10070000915020408040E1F700C0000011E0DDDCA6
:10071000883C08F094CF0F5F043008F490CF11119B
:1007200003C06FE781E802C061E88FE7AFDD9FEFAC
:1007300029E688E1915020408040E1F700C00000A8
:1007400000E07DCFAEE0B0E0E7EAF3E091C20D89D2
:100750001E8986E08C831A8309838FEF9FE79E832F
:100760008D83AE01475E5F4F6F89788DCE01019614
:1007700008D0EF81F885E00FF11F10822E96E4E09B
:1007800093C2ACE0B0E0E6ECF3E064C27C016B0144
:100790008A01FC0117821682838181FFB0C1CE01DC
:1007A00001964C01F7019381F60193FD859193FF2A
:1007B00081916F01882309F49EC1853239F493FD3C
:1007C000859193FF81916F01853221F4B70190E00B
:1007D000B1D1E8CF512C312C20E02032A0F48B3263
:1007E00069F030F4803259F0833269F420612CC012
:1007F0008D3239F0803339F4216026C022602460C4
:1008000023C0286021C027FD27C030ED380F3A30C3
:1008100078F426FF06C0FAE05F9E300D1124532EB7
:1008200013C08AE0389E300D1124332E20620CC094
:100830008E3221F426FD5FC1206406C08C3611F48F
:10084000206802C0883641F4F60193FD859193FF3C
:1008500081916F018111C1CF982F9F7D9554933065
:1008600028F40C5F1F4FFFE3F9830DC0833631F08E
:10087000833771F0833509F057C021C0F8018081BA
:1008800089830E5F1F4F44244394512C540114C09C
:100890003801F2E06F0E711CF801A080B18026FFD4
:1008A00003C0652D70E002C06FEF7FEFC5012C879C
:1008B00036D12C0183012C852F77222E16C03801CA
:1008C000F2E06F0E711CF801A080B18026FF03C01A
:1008D000652D70E002C06FEF7FEFC5012C8714D14A
:1008E0002C012C852068222E830123FC19C0832D26
:1008F00090E048165906A0F4B70180E290E01AD1C2
:100900003A94F5CFF50127FC859127FE81915F018F
:10091000B70190E00FD131103A94F1E04F1A51082D
:100920004114510479F7DEC0843611F0893631F56F
:10093000F80127FF07C060817181828193810C5F7C
:100940001F4F08C060817181882777FD8095982F9F
:100950000E5F1F4F2F76B22E97FF09C0909580959E
:10096000709561957F4F8F4F9F4F2068B22E2AE080
:1009700030E0A40111D1A82EA81843C0853729F46E
:100980002F7EB22E2AE030E025C0F22FF97FBF2E55
:100990008F36C1F018F4883579F0ADC0803719F082
:1009A000883721F0A8C02F2F2061B22EB4FE0DC0D1
:1009B0008B2D8460B82E09C024FF0AC09F2F96603B
:1009C000B92E06C028E030E005C020E130E002C0CA
:1009D00020E132E0F801B7FE07C0608171818281B9
:1009E00093810C5F1F4F06C06081718180E090E0B1
:1009F0000E5F1F4FA401D0D0A82EA818FB2DFF77A3
:100A0000BF2EB6FE0BC02B2D2E7FA51450F4B4FEC6
:100A10000AC0B2FC08C02B2D2E7E05C07A2C2B2DCF
:100A200003C07A2C01C0752C24FF0DC0FE01EA0D15
:100A3000F11D8081803311F4297E09C022FF06C098
:100A40007394739404C0822F867809F0739423FD05
:100A500012C020FF06C05A2C731418F4530C5718F8
:100A6000732C731460F4B70180E290E02C8762D09D
:100A700073942C85F6CF731410F4371801C0312C01
:100A800024FF11C0B70180E390E02C8753D02C8560
:100A900022FF16C021FF03C088E590E002C088E76E
:100AA00090E0B7010CC0822F867851F021FD02C082
:100AB00080E201C08BE227FD8DE2B70190E03AD0E1
:100AC000A51430F4B70180E390E034D05A94F8CF05
:100AD000AA94F401EA0DF11D8081B70190E02AD0BB
:100AE000A110F6CF332009F45DCEB70180E290E08B
:100AF00021D03A94F7CFF7018681978102C08FEF1A
:100B00009FEF2C96E2E1C2C0FC010590615070405D
:100B10000110D8F7809590958E0F9F1F0895FC01C6
:100B20006150704001900110D8F7809590958E0F1C
:100B30009F1F08950F931F93CF93DF93182F092FB3
:100B4000EB018B8181FD03C08FEF9FEF20C082FFFF
:100B500010C04E815F812C813D81421753077CF488
:100B6000E881F9819F012F5F3F4F398328831083EC
:100B700006C0E885F985812F0995892B29F72E81F3
:100B80003F812F5F3F4F3F832E83812F902FDF9137
:100B9000CF911F910F910895FA01AA27283051F1A2
:100BA000203181F1E8946F936E7F6E5F7F4F8F4F9E
:100BB0009F4FAF4FB1E03ED0B4E03CD0670F781FFD
:100BC000891F9A1FA11D680F791F8A1F911DA11DE2
:100BD0006A0F711D811D911DA11D20D009F468941B
:100BE0003F912AE0269F11243019305D3193DEF6C3
:100BF000CF010895462F4770405D4193B3E00FD079
:100C0000C9F7F6CF462F4F70405D4A3318F0495D63
:100C100031FD4052419302D0A9F7EACFB4E0A69546
:100C20009795879577956795BA95C9F70097610568
:100C3000710508959B01AC010A2E069457954795BE
:100C400037952795BA95C9F7620F731F841F951FB3
:100C5000A01D08952F923F924F925F926F927F92C4
:100C60008F929F92AF92BF92CF92DF92EF92FF92BC
:100C70000F931F93CF93DF93CDB7DEB7CA1BDB0B68
:100C80000FB6F894DEBF0FBECDBF09942A8839880D
:100C900048885F846E847D848C849B84AA84B98414
:100CA000C884DF80EE80FD800C811B81AA81B98120
:100CB000CE0FD11D0FB6F894DEBF0FBECDBFED0134
:060CC0000895F894FFCF37
:100CC600FFFF25336420253364202533640A0000A2
:00000001FF
